{
  "contractName": "OathMusic",
  "abi": [
    {
      "constant": true,
      "inputs": [],
      "name": "songTitle",
      "outputs": [
        {
          "name": "",
          "type": "string"
        }
      ],
      "payable": false,
      "stateMutability": "view",
      "type": "function"
    },
    {
      "constant": true,
      "inputs": [
        {
          "name": "",
          "type": "address"
        }
      ],
      "name": "accessLevel",
      "outputs": [
        {
          "name": "",
          "type": "uint256"
        }
      ],
      "payable": false,
      "stateMutability": "view",
      "type": "function"
    },
    {
      "constant": false,
      "inputs": [
        {
          "name": "_user",
          "type": "address"
        },
        {
          "name": "_access",
          "type": "uint256"
        }
      ],
      "name": "setAccessLevel",
      "outputs": [],
      "payable": false,
      "stateMutability": "nonpayable",
      "type": "function"
    },
    {
      "constant": true,
      "inputs": [
        {
          "name": "",
          "type": "address"
        }
      ],
      "name": "songWriterDB",
      "outputs": [
        {
          "name": "name",
          "type": "string"
        },
        {
          "name": "split",
          "type": "uint256"
        },
        {
          "name": "idNumber",
          "type": "uint256"
        },
        {
          "name": "signingAddress",
          "type": "address"
        },
        {
          "name": "signed",
          "type": "bool"
        }
      ],
      "payable": false,
      "stateMutability": "view",
      "type": "function"
    },
    {
      "constant": true,
      "inputs": [
        {
          "name": "_user",
          "type": "address"
        }
      ],
      "name": "getAccessLevel",
      "outputs": [
        {
          "name": "",
          "type": "uint256"
        }
      ],
      "payable": false,
      "stateMutability": "view",
      "type": "function"
    },
    {
      "constant": true,
      "inputs": [
        {
          "name": "",
          "type": "address"
        }
      ],
      "name": "pendingSignatures",
      "outputs": [
        {
          "name": "",
          "type": "uint256"
        }
      ],
      "payable": false,
      "stateMutability": "view",
      "type": "function"
    },
    {
      "constant": true,
      "inputs": [],
      "name": "audioStoragePointer",
      "outputs": [
        {
          "name": "",
          "type": "bytes32"
        }
      ],
      "payable": false,
      "stateMutability": "view",
      "type": "function"
    },
    {
      "constant": true,
      "inputs": [],
      "name": "myAccessLevel",
      "outputs": [
        {
          "name": "",
          "type": "uint256"
        }
      ],
      "payable": false,
      "stateMutability": "view",
      "type": "function"
    },
    {
      "constant": true,
      "inputs": [
        {
          "name": "",
          "type": "uint256"
        }
      ],
      "name": "songwriters",
      "outputs": [
        {
          "name": "name",
          "type": "string"
        },
        {
          "name": "split",
          "type": "uint256"
        },
        {
          "name": "idNumber",
          "type": "uint256"
        },
        {
          "name": "signingAddress",
          "type": "address"
        },
        {
          "name": "signed",
          "type": "bool"
        }
      ],
      "payable": false,
      "stateMutability": "view",
      "type": "function"
    },
    {
      "constant": true,
      "inputs": [],
      "name": "lyricsStoragePointer",
      "outputs": [
        {
          "name": "",
          "type": "bytes32"
        }
      ],
      "payable": false,
      "stateMutability": "view",
      "type": "function"
    },
    {
      "constant": true,
      "inputs": [],
      "name": "pdfAttachmentStoragePointer",
      "outputs": [
        {
          "name": "",
          "type": "bytes32"
        }
      ],
      "payable": false,
      "stateMutability": "view",
      "type": "function"
    },
    {
      "constant": true,
      "inputs": [],
      "name": "songWriterCount",
      "outputs": [
        {
          "name": "",
          "type": "uint256"
        }
      ],
      "payable": false,
      "stateMutability": "view",
      "type": "function"
    },
    {
      "inputs": [],
      "payable": false,
      "stateMutability": "nonpayable",
      "type": "constructor"
    },
    {
      "anonymous": false,
      "inputs": [
        {
          "indexed": false,
          "name": "title",
          "type": "string"
        },
        {
          "indexed": false,
          "name": "lyricsHash",
          "type": "bytes32"
        },
        {
          "indexed": false,
          "name": "audioHash",
          "type": "bytes32"
        },
        {
          "indexed": false,
          "name": "leadsheetHash",
          "type": "bytes32"
        }
      ],
      "name": "SongDataAdded",
      "type": "event"
    },
    {
      "anonymous": false,
      "inputs": [
        {
          "indexed": false,
          "name": "swName",
          "type": "string"
        },
        {
          "indexed": false,
          "name": "swSplit",
          "type": "uint256"
        },
        {
          "indexed": false,
          "name": "sqId",
          "type": "uint256"
        },
        {
          "indexed": true,
          "name": "swAddress",
          "type": "address"
        }
      ],
      "name": "SongWriterAdded",
      "type": "event"
    },
    {
      "anonymous": false,
      "inputs": [
        {
          "indexed": false,
          "name": "signingSongWriter",
          "type": "address"
        },
        {
          "indexed": false,
          "name": "didTheySign",
          "type": "bool"
        },
        {
          "indexed": false,
          "name": "sigStatus",
          "type": "uint256"
        }
      ],
      "name": "SongWriterSigned",
      "type": "event"
    },
    {
      "anonymous": false,
      "inputs": [
        {
          "indexed": false,
          "name": "target",
          "type": "address"
        },
        {
          "indexed": false,
          "name": "status",
          "type": "uint256"
        }
      ],
      "name": "SignatureStatusChange",
      "type": "event"
    },
    {
      "constant": false,
      "inputs": [
        {
          "name": "_title",
          "type": "string"
        },
        {
          "name": "_string1",
          "type": "string"
        },
        {
          "name": "_string2",
          "type": "string"
        },
        {
          "name": "_string3",
          "type": "string"
        }
      ],
      "name": "addSongData",
      "outputs": [],
      "payable": false,
      "stateMutability": "nonpayable",
      "type": "function"
    },
    {
      "constant": false,
      "inputs": [
        {
          "name": "_name",
          "type": "string"
        },
        {
          "name": "_split",
          "type": "uint256"
        },
        {
          "name": "_songWriterAddress",
          "type": "address"
        }
      ],
      "name": "addSongWriter",
      "outputs": [],
      "payable": false,
      "stateMutability": "nonpayable",
      "type": "function"
    },
    {
      "constant": false,
      "inputs": [],
      "name": "songWriterSign",
      "outputs": [],
      "payable": false,
      "stateMutability": "nonpayable",
      "type": "function"
    },
    {
      "constant": true,
      "inputs": [
        {
          "name": "_songWriter",
          "type": "address"
        }
      ],
      "name": "hasSongWriterSigned",
      "outputs": [
        {
          "name": "",
          "type": "bool"
        }
      ],
      "payable": false,
      "stateMutability": "view",
      "type": "function"
    },
    {
      "constant": true,
      "inputs": [
        {
          "name": "_target",
          "type": "address"
        }
      ],
      "name": "getPendingSignatureStatus",
      "outputs": [
        {
          "name": "",
          "type": "uint256"
        }
      ],
      "payable": false,
      "stateMutability": "view",
      "type": "function"
    }
  ],
  "bytecode": "0x608060405234801561001057600080fd5b503360009081526020819052604081206003905560085561119f806100366000396000f3006080604052600436106100f05763ffffffff7c0100000000000000000000000000000000000000000000000000000000600035041663089a15e481146100f55780632ed9859f1461017f5780632f259a00146101b45780633a7327a3146101e75780634aef05a51461020d57806356be5d8b146102775780635bc008a01461033757806370ee68e2146103585780638095ab76146103795780639f421ebc1461038e5780639f674eb3146103a3578063aac0e4c5146103b8578063cb56f275146103d9578063d0eab6b7146103f1578063d1a1f5ba14610406578063f1d2549414610519578063f7074fe61461052e575b600080fd5b34801561010157600080fd5b5061010a610543565b6040805160208082528351818301528351919283929083019185019080838360005b8381101561014457818101518382015260200161012c565b50505050905090810190601f1680156101715780820380516001836020036101000a031916815260200191505b509250505060405180910390f35b34801561018b57600080fd5b506101a0600160a060020a03600435166105d1565b604080519115158252519081900360200190f35b3480156101c057600080fd5b506101d5600160a060020a03600435166105f9565b60408051918252519081900360200190f35b3480156101f357600080fd5b5061020b600160a060020a036004351660243561060b565b005b34801561021957600080fd5b506040805160206004803580820135601f810184900484028501840190955284845261020b9436949293602493928401919081908401838280828437509497505084359550505050602090910135600160a060020a03169050610683565b34801561028357600080fd5b50610298600160a060020a03600435166108f4565b604080516020808201879052918101859052600160a060020a0384166060820152821515608082015260a080825287519082015286519091829160c083019189019080838360005b838110156102f85781810151838201526020016102e0565b50505050905090810190601f1680156103255780820380516001836020036101000a031916815260200191505b50965050505050505060405180910390f35b34801561034357600080fd5b506101d5600160a060020a03600435166109b9565b34801561036457600080fd5b506101d5600160a060020a03600435166109d4565b34801561038557600080fd5b5061020b6109e6565b34801561039a57600080fd5b506101d5610d91565b3480156103af57600080fd5b506101d5610d97565b3480156103c457600080fd5b506101d5600160a060020a0360043516610da8565b3480156103e557600080fd5b50610298600435610dc3565b3480156103fd57600080fd5b506101d5610e3f565b34801561041257600080fd5b506040805160206004803580820135601f810184900484028501840190955284845261020b94369492936024939284019190819084018382808284375050604080516020601f89358b018035918201839004830284018301909452808352979a99988101979196509182019450925082915084018382808284375050604080516020601f89358b018035918201839004830284018301909452808352979a99988101979196509182019450925082915084018382808284375050604080516020601f89358b018035918201839004830284018301909452808352979a999881019791965091820194509250829150840183828082843750949750610e459650505050505050565b34801561052557600080fd5b506101d5610f71565b34801561053a57600080fd5b506101d5610f77565b6003805460408051602060026001851615610100026000190190941693909304601f810184900484028201840190925281815292918301828280156105c95780601f1061059e576101008083540402835291602001916105c9565b820191906000526020600020905b8154815290600101906020018083116105ac57829003601f168201915b505050505081565b600160a060020a031660009081526001602052604090206003015460a060020a900460ff1690565b60006020819052908152604090205481565b336000908152602081905260409020546003111561062857600080fd5b600160a060020a03821660009081526020819052604090205460031161064d57600080fd5b600081108061065c5750600381115b1561066657600080fd5b600160a060020a0391909116600090815260208190526040902055565b61068b6110a0565b33600090815260208190526040902054600311156106a857600080fd5b600160a060020a038216600090815260026020526040812054111561072e57604080517f08c379a000000000000000000000000000000000000000000000000000000000815260206004820152601560248201527f4475706c696361746520536f6e67205772697465720000000000000000000000604482015290519081900360640190fd5b838152602081018390526008546001016040820152600160a060020a038216606082015260006080820152610762826109b9565b6003146107745761077482600261060b565b600160a060020a03821660009081526001602090815260409091208251805184936107a39284929101906110db565b50602082015160018083019190915560408301516002830155606083015160039092018054608090940151151560a060020a0274ff000000000000000000000000000000000000000019600160a060020a0390941673ffffffffffffffffffffffffffffffffffffffff19909516949094179290921692909217905561082a908390610f7d565b60085460010160088190555081600160a060020a03167f4ae480e61218b6fd50d49aef62661bb946cb0d4f442f72180c8da564a2dc898185856008546001016040518080602001848152602001838152602001828103825285818151815260200191508051906020019080838360005b838110156108b257818101518382015260200161089a565b50505050905090810190601f1680156108df5780820380516001836020036101000a031916815260200191505b5094505050505060405180910390a250505050565b60016020818152600092835260409283902080548451600294821615610100026000190190911693909304601f81018390048302840183019094528383529283918301828280156109865780601f1061095b57610100808354040283529160200191610986565b820191906000526020600020905b81548152906001019060200180831161096957829003601f168201915b505050506001830154600284015460039094015492939092909150600160a060020a0381169060a060020a900460ff1685565b600160a060020a031660009081526020819052604090205490565b60026020526000908152604090205481565b6109ee6110a0565b3360009081526020819052604090205460021115610a0b57600080fd5b3360009081526001602052604090206003015460a060020a900460ff1615610a9457604080517f08c379a000000000000000000000000000000000000000000000000000000000815260206004820152601960248201527f536f6e6757726974657220616c7265616479207369676e656400000000000000604482015290519081900360640190fd5b33600090815260026020526040902054600114610b3857604080517f08c379a000000000000000000000000000000000000000000000000000000000815260206004820152602260248201527f536f6e67577269746572206e6f7420666f756e6420666f72207468697320736f60448201527f6e67000000000000000000000000000000000000000000000000000000000000606482015290519081900360840190fd5b33600090815260026020818152604080842083905560018083529381902060038101805474ff0000000000000000000000000000000000000000191660a060020a1790558151815460c0601f600019988316156101000298909801909116959095049586018490049093028301840190915260a08201848152919390928492918491840182828015610c0b5780601f10610be057610100808354040283529160200191610c0b565b820191906000526020600020905b815481529060010190602001808311610bee57829003601f168201915b505050918352505060018281015460208084019190915260028401546040840152600390930154600160a060020a038116606084015260ff60a060020a90910416151560809283015290830181905260078054918201808255600091909152835180519495509093859360049093027fa66cc928b5edb82af9bd49922954155ab7b0942694bea4ce44661d9a8736c6880192610cab9284929101906110db565b506020828101516001838101919091556040808501516002808601919091556060808701516003968701805460809099015173ffffffffffffffffffffffffffffffffffffffff19909916600160a060020a039092169190911774ff0000000000000000000000000000000000000000191660a060020a9815158902179055336000818152948652838520909601549185529282902054825195865260ff969091049590951615159284019290925282820193909352517ff3a25053f67bed33fda17e3a348ea351d233fdd6c36f260a37f1c14b7727926293509081900390910190a150565b60055481565b6000610da2336109b9565b90505b90565b600160a060020a031660009081526002602052604090205490565b6007805482908110610dd157fe5b60009182526020918290206004919091020180546040805160026001841615610100026000190190931692909204601f8101859004850283018501909152808252919350918391908301828280156109865780601f1061095b57610100808354040283529160200191610986565b60045481565b3360009081526020819052604090205460031115610e6257600080fd5b8351610e759060039060208701906110db565b50610e7f83610fd6565b600455610e8b82610fd6565b600555610e9781610fd6565b6006819055600454600554604080516020810184905290810182905260608101849052608080825260038054600261010060018316150260001901909116049183018290527f35d770751c39bdcbb5b0d8c5a3f922552902a05423e114bbf12af217a8f9302995909493929091819060a082019087908015610f5a5780601f10610f2f57610100808354040283529160200191610f5a565b820191906000526020600020905b815481529060010190602001808311610f3d57829003601f168201915b50509550505050505060405180910390a150505050565b60065481565b60085481565b600160a060020a0382166000818152600260209081526040918290208490558151928352820183905280517f5693242528bb02ace9cd0ed9597efcac55463eacefab0ad0cf306d9bf0a3dd779281900390910190a15050565b6000816040516020018082805190602001908083835b6020831061100b5780518252601f199092019160209182019101610fec565b6001836020036101000a0380198251168184511680821785525050505050509050019150506040516020818303038152906040526040518082805190602001908083835b6020831061106e5780518252601f19909201916020918201910161104f565b5181516020939093036101000a6000190180199091169216919091179052604051920182900390912095945050505050565b60a0604051908101604052806060815260200160008152602001600081526020016000600160a060020a031681526020016000151581525090565b828054600181600116156101000203166002900490600052602060002090601f016020900481019282601f1061111c57805160ff1916838001178555611149565b82800160010185558215611149579182015b8281111561114957825182559160200191906001019061112e565b50611155929150611159565b5090565b610da591905b80821115611155576000815560010161115f5600a165627a7a7230582068b9472bedfd4d3b7643b1abd16c089032659d26d86a9e49a30d92c53c5763170029",
  "source": "pragma solidity ^0.4.24;\n\n\nimport \"./Ownership/OathAccessControlled.sol\";\n\n\ncontract OathMusic is OathAccessControlled {\n///|=:=|=:=|=:=|=:=|=:=|=:=|=:=|~Type Declarations~|=:=|=:=|=:=|=:=|=:=|=:=|=:=|\\\\\\\n    struct SongWriter {\n        string name;\n        uint256 split;\n        uint256 idNumber;\n        address signingAddress;\n        bool signed;\n    }\n\n    /// mapping song writer (address) to SongWriter struct \n    mapping(address => SongWriter) public songWriterDB;\n\n    /// \n    mapping(address => uint256) public pendingSignatures;\n\n    ///|=:=|=:=|=:=|=:=|=:=|=:=|=:=|~~~~~Constants~~~~~|=:=|=:=|=:=|=:=|=:=|=:=|=:=|\\\\\\\n\n\n    ///|=:=|=:=|=:=|=:=|=:=|=:=|=:=|~~State Variables~~|=:=|=:=|=:=|=:=|=:=|=:=|=:=|\\\\\\\n    string public songTitle;\n    bytes32 public lyricsStoragePointer;\n    bytes32 public audioStoragePointer;\n    bytes32 public pdfAttachmentStoragePointer;\n    SongWriter[] public songwriters;\n    uint256 public songWriterCount;\n\n    ///|=:=|=:=|=:=|=:=|=:=|=:=|=:=|~~~~~~Events~~~~~~~|=:=|=:=|=:=|=:=|=:=|=:=|=:=|\\\\\\\n\n    event SongDataAdded(\n        string title,\n        bytes32 lyricsHash,\n        bytes32 audioHash,\n        bytes32 leadsheetHash\n    );\n\n    event SongWriterAdded(\n        string swName,\n        uint256 swSplit,\n        uint256 sqId,\n        address indexed swAddress\n    );\n\n    event SongWriterSigned(address signingSongWriter, bool didTheySign, uint256 sigStatus);\n\n    event SignatureStatusChange(address target, uint256 status);\n\n    ///|=:=|=:=|=:=|=:=|=:=|=:=|=:=|~~~~~Modifiers~~~~~|=:=|=:=|=:=|=:=|=:=|=:=|=:=|\\\\\\\n\n\n    ///|=:=|=:=|=:=|=:=|=:=|=:=|=:=|~~~~Constructor~~~~|=:=|=:=|=:=|=:=|=:=|=:=|=:=|\\\\\\\n    constructor() public {\n        songWriterCount = 0;\n    }\n\n    ///|=:=|=:=|=:=|=:=|=:=|=:=|=:=|~Public~~Functions~|=:=|=:=|=:=|=:=|=:=|=:=|=:=|\\\\\\\n\n    /// TEST DATA: \"Three Little Birds\", \"QmS987m3EFH8nQDjqsVubLZqrhmYF49Su7xCmXUvZkbmgN\", \"QmS987m3EFH8nQDjqsVubLZqrhmYF49Su7xCmXUvZkbmgN\", \"QmS987m3EFH8nQDjqsVubLZqrhmYF49Su7xCmXUvZkbmgN\"\n    /**\n     * @dev addSongData adds the metadata to the deployed song contract\n     * @dev Ideally, should be private and called only via contructor at deployment\n     * @param _title string song title\n     * @param _string1 string lyricsStoragePointer\n     * @param _string2 string audioStoragePointer\n     * @param _string3 string pdfAttachmentStoragePointer\n     */\n    function addSongData(\n        string _title,\n        string _string1,\n        string _string2,\n        string _string3\n    )\n        public\n        RequiresOwnerAccess\n    {\n        songTitle = _title;\n        lyricsStoragePointer = hashData(_string1);\n        audioStoragePointer = hashData(_string2);\n        pdfAttachmentStoragePointer = hashData(_string3);\n\n        emit SongDataAdded(\n            songTitle,\n            lyricsStoragePointer,\n            audioStoragePointer,\n            pdfAttachmentStoragePointer\n        );\n    }\n\n    /**\n     * @dev addSongWriter adds the metadata for a Song Writer to the deployed song contract\n     * @param _name string name of songwriter\n     * @param _split uint256 split of royalties that songwriter is to receive\n     * @param _songWriterAddress address used by songwriter for signing\n     */\n    function addSongWriter(\n        string _name,\n        uint256 _split,\n        address _songWriterAddress\n    )\n        public\n        RequiresOwnerAccess\n    {\n        if (pendingSignatures[_songWriterAddress] > 0) {\n            revert(\"Duplicate Song Writer\");\n        }\n\n        /// New SongWriter Struct\n        SongWriter memory artist;\n\n        artist.name = _name; /// User input\n        artist.split = _split; /// User input\n        artist.idNumber = songWriterCount + 1; /// Id set to current count + 1\n        artist.signingAddress = _songWriterAddress; /// User input\n        artist.signed = false; /// Set signed to false\n\n        /// If song writer does not have owner access (not owner) give artist access\n        if (getAccessLevel(_songWriterAddress) != 3) {\n            setAccessLevel(_songWriterAddress, 2);\n        }\n\n        /// Add address to songwriter mapping\n        songWriterDB[_songWriterAddress] = artist;\n\n        /// set songwriter address as having pending signature\n        setPendingSignatureStatus(_songWriterAddress, 1);\n\n        /// update songwriter count\n        songWriterCount = songWriterCount + 1;\n\n        // event emission\n        emit SongWriterAdded(\n            _name,\n            _split,\n            songWriterCount + 1,\n            _songWriterAddress\n        );\n\n    }\n    \n    /**\n     * @dev songWriterSign allows songwriters added to song contract to sign off on their addition\n     * @dev function first checks that they have no already signed and that they are elgibile to sign\n     */\n    function songWriterSign() public RequiresSongWriterAccess {\n        require(songWriterDB[msg.sender].signed == false, \"SongWriter already signed\");\n        require(pendingSignatures[msg.sender] == 1, \"SongWriter not found for this song\");\n\n        /// Set signature status to 2 from 1 and update SongWriter struct for signer\n        pendingSignatures[msg.sender] = 2;\n        songWriterDB[msg.sender].signed = true;\n\n\n        /// New SongWriter Struct\n        SongWriter memory artist;\n\n        artist = songWriterDB[msg.sender];\n        artist.signed = true; /// Set signed to false\n        /// Add struct to array of SongWriter Structs\n        songwriters.push(artist);\n\n        /// Event emission\n        emit SongWriterSigned(msg.sender, songWriterDB[msg.sender].signed, pendingSignatures[msg.sender]);\n    }\n\n///|=:=|=:=|=:=|=:=|=:=|=:=|=:=|View~~Functions|=:=|=:=|=:=|=:=|=:=|=:=|=:=|\\\\\\\n\n    /**\n     * @dev returns whether the song writer status is signed\n     * @param _songWriter address of the songwriter to return whether they have signed\n     * @return bool status of whether _songWriter has signed\n     */\n    function hasSongWriterSigned(address _songWriter) public view returns (bool) {\n        return songWriterDB[_songWriter].signed;\n    }\n\n    /**\n     * @dev returns the signature status of a given address\n     * @param _target address for signature status determination\n     * @return uint256 status of signature for _target 0, 1, 2.\n     */\n    function getPendingSignatureStatus(address _target) public view returns (uint256) {\n        return pendingSignatures[_target];\n    }\n\n///|=:=|=:=|=:=|=:=|=:=|=:=|=:=|Internal~~Functions|=:=|=:=|=:=|=:=|=:=|=:=|=:=|\\\\\\\n    /**\n     * @dev Returns the bytes32 hash for a given string\n     * @param _input string to hash\n     */\n    function hashData(string _input) internal pure returns (bytes32) {\n        return keccak256(abi.encodePacked(_input));\n    }\n\n    /**\n     * @dev sets pending signature status for a target address \n     * @param _target address for pending signature status change\n     * @param _access uint256 status code to set for target\n     * @dev _access values:\n     *      0 - (default) -> not pending + not signed\n     *      1 - (added but unsigned) -> pending + not signed\n     *      2 - (added and signed) -> not pending + signed\n     */\n    function setPendingSignatureStatus(address _target, uint256 _access) internal {\n        pendingSignatures[_target] = _access;\n        emit SignatureStatusChange(_target, _access);\n    }\n\n///|=:=|=:=|=:=|=:=|=:=|=:=|=:=|~Private~Functions~|=:=|=:=|=:=|=:=|=:=|=:=|=:=|\\\\\\\n\n\n\n\n\n\n}",
  "sourcePath": "/home/ryan/Git/RH/Oath-Music/contracts/OathMusic.sol",
  "compiler": {
    "name": "solc",
    "version": "0.4.24+commit.e67f0147.Emscripten.clang"
  },
  "schemaVersion": "2.0.1",
  "updatedAt": "2018-09-06T22:42:36.044Z"
}